:100000000C9462000C948A000C948A000C948A0070
:100010000C948A000C948A000C948A000C948A0038
:100020000C948A000C948A000C948A000C948A0028
:100030000C948A000C948A000C948A000C948A0018
:100040000C9473010C948A000C9443030C94910358
:100050000C948A000C948A000C948A000C948A00F8
:100060000C948A000C948A000000000024002700F1
:100070002A0000000000250028002B0000000000DE
:1000800023002600290004040404040404040202DA
:100090000202020203030303030301020408102007
:1000A0004080010204081020010204081020000012
:1000B0000007000201000003040600000000000029
:1000C0000000FD0411241FBECFEFD8E0DEBFCDBF7E
:1000D00011E0A0E0B1E0ECE6FBE002C005900D927B
:1000E000A031B107D9F711E0A0E1B1E001C01D9244
:1000F000A33CB107E1F710E0C4ECD0E004C02297C4
:10010000FE010E94B005C23CD107C9F70E94530509
:100110000C94B4050C9400000F931F93CF93DF93BE
:10012000C0E0D0E000E011E08AE0BE010E944F0292
:100130006AE070E080E090E00E94BB01B8016C1BB7
:100140007D0B85E00E944F026AE070E080E090E065
:100150000E94BB01219681E0C030D80729F70FEF3C
:1001600010E0C0E0D1E089E0B8010E944F026AE0EF
:1001700070E080E090E00E94BB01BE01601B710B4B
:1001800086E00E944F026AE070E080E090E00E940A
:10019000BB010150104039F7C0E0D0E08BE0BE0158
:1001A0000E944F026AE070E080E090E00E94BB0194
:1001B000BE016058704077FF03C0709561957F4F16
:1001C00083E00E944F026AE070E080E090E00E94CD
:1001D000BB01219681E0C030D80701F7CFEFD0E016
:1001E0008AE0BE010E944F026AE070E080E090E089
:1001F0000E94BB01BE016058704077FF03C070953C
:1002000061957F4F85E00E944F026AE070E080E0D8
:1002100090E00E94BB01219719F789E0B8010E9484
:100220004F026AE070E080E090E00E94BB01B801FC
:100230006058704077FF03C0709561957F4F83E0F1
:100240000E944F026AE070E080E090E00E94BB01F3
:100250000F5F1F4F81E000301807F9F6CFEFD0E0B5
:100260008BE0BE010E944F026AE070E080E090E007
:100270000E94BB01BE016058704077FF03C07095BB
:1002800061957F4F86E00E944F026AE070E080E057
:1002900090E00E94BB01219719F7DF91CF911F9148
:1002A0000F9108958AE061E00E94AF028BE061E067
:1002B0000E94AF0289E061E00E94AF0285E061E048
:1002C0000E94AF0286E061E00E94AF0283E061E03D
:1002D0000E94AF0281EA91E040E855E260E070E000
:1002E0000E94CC0308951F920F920FB60F92112413
:1002F0002F933F938F939F93AF93BF93809114015C
:1003000090911501A0911601B0911701309118013B
:100310000196A11DB11D232F2D5F2D3720F02D57E4
:100320000196A11DB11D2093180180931401909393
:100330001501A0931601B0931701809110019091BF
:100340001101A0911201B09113010196A11DB11DDF
:100350008093100190931101A0931201B0931301A7
:10036000BF91AF919F918F913F912F910F900FBEB1
:100370000F901F9018959B01AC017FB7F894809166
:10038000100190911101A0911201B091130166B575
:10039000A89B05C06F3F19F00196A11DB11D7FBF3D
:1003A000BA2FA92F982F8827860F911DA11DB11D47
:1003B00062E0880F991FAA1FBB1F6A95D1F7BC0185
:1003C0002DC0FFB7F8948091100190911101A09178
:1003D0001201B0911301E6B5A89B05C0EF3F19F0DB
:1003E0000196A11DB11DFFBFBA2FA92F982F8827F5
:1003F0008E0F911DA11DB11DE2E0880F991FAA1F4C
:10040000BB1FEA95D1F7861B970B885E9340C8F215
:10041000215030404040504068517C4F21153105FB
:100420004105510571F60895789484B5826084BDC4
:1004300084B5816084BD85B5826085BD85B58160E8
:1004400085BDEEE6F0E0808181608083E1E8F0E048
:100450001082808182608083808181608083E0E877
:10046000F0E0808181608083E1EBF0E08081846056
:100470008083E0EBF0E0808181608083EAE7F0E058
:1004800080818460808380818260808380818160BC
:1004900080838081806880831092C10008951F93BB
:1004A000CF93DF93182FEB0161E00E94AF022097FA
:1004B00009F44AC0CF3FD10509F449C0E12FF0E06B
:1004C000E255FF4F84918330C1F0843028F48130AD
:1004D00051F08230B1F50CC0863019F1873049F106
:1004E000843079F514C084B5806884BDC7BD33C03D
:1004F00084B5806284BDC8BD2EC0809180008068B4
:1005000080938000D0938900C093880024C080919C
:100510008000806280938000D0938B00C0938A001B
:100520001AC08091B00080688093B000C093B3007F
:1005300012C08091B00080628093B000C093B4007C
:100540000AC0C038D1051CF4812F60E002C0812FA1
:1005500061E00E94EE02DF91CF911F910895CF9349
:10056000DF93482F50E0CA0186569F4FFC0134911B
:100570004A575F4FFA018491882369F190E0880F10
:10058000991FFC01E859FF4FA591B491FC01EE5869
:10059000FF4FC591D491662351F42FB7F8948C91F5
:1005A000932F909589238C93888189230BC0623087
:1005B00061F42FB7F8948C91932F909589238C93A5
:1005C0008881832B88832FBF06C09FB7F8948C91B6
:1005D000832B8C939FBFDF91CF910895482F50E0DC
:1005E000CA0182559F4FFC012491CA0186569F4F34
:1005F000FC0194914A575F4FFA013491332309F477
:1006000040C0222351F1233071F0243028F42130EE
:10061000A1F0223011F514C02630B1F02730C1F01E
:100620002430D9F404C0809180008F7703C080917A
:1006300080008F7D8093800010C084B58F7702C0CA
:1006400084B58F7D84BD09C08091B0008F7703C0D1
:100650008091B0008F7D8093B000E32FF0E0EE0F2B
:10066000FF1FEE58FF4FA591B4912FB7F894662362
:1006700021F48C919095892302C08C91892B8C93C5
:100680002FBF089508951F920F920FB60F92112455
:100690002F933F934F938F939F93EF93FF9380916B
:1006A000C00082FD1DC04091C600209159013091CB
:1006B0005A012F5F3F4F2F73307080915B019091F3
:1006C0005C012817390771F0E0915901F0915A0146
:1006D000E75EFE4F408330935A012093590102C0D8
:1006E0008091C600FF91EF919F918F914F913F9123
:1006F0002F910F900FBE0F901F901895E091AD01B4
:10070000F091AE01E05CFF4F8191919120813181A8
:10071000821B930B8F739070892B11F00E94420300
:1007200008951F920F920FB60F9211242F933F93AB
:100730008F939F93EF93FF9320919D0130919E01A2
:1007400080919F019091A0012817390731F4809181
:10075000C1008F7D8093C10014C0E0919F01F09192
:10076000A001E35AFE4F208180919F019091A0014A
:1007700001968F7390709093A00180939F012093B6
:10078000C600FF91EF919F918F913F912F910F9014
:100790000FBE0F901F901895AF92BF92DF92EF920D
:1007A000FF920F931F93CF93DF93EC017A018B019C
:1007B000DD24403081EE580780E0680780E078074C
:1007C00011F0DD24D39491E0A92EB12CEC89FD89A0
:1007D000DD2069F0C50108A002C0880F991F0A94A6
:1007E000E2F7808360E079E08DE390E005C010825D
:1007F00060E874E88EE190E0A80197010E948C0502
:1008000021503040404050405695479537952795A8
:1008100080E12030380720F0DD2011F0DD24D6CF34
:10082000E889F9893083EA89FB89208319A2EE8956
:10083000FF89408121E030E0C9010C8C02C0880FA3
:10084000991F0A94E2F7482B4083EE89FF89408183
:10085000C9010D8C02C0880F991F0A94E2F7482B3A
:100860004083EE89FF894081C9010E8C02C0880F48
:10087000991F0A94E2F7482B4083EE89FF89808113
:100880000F8C02C0220F331F0A94E2F72095282311
:100890002083DF91CF911F910F91FF90EF90DF9018
:1008A000BF90AF900895DC011C96ED91FC911D97CF
:1008B000E05CFF4F2191319180819181281B390BA0
:1008C0002F733070C9010895DC011C96ED91FC91E5
:1008D0001D97E05CFF4F20813181E054F040DF0143
:1008E000AE5BBF4F8D919C9111972817390719F472
:1008F0002FEF3FEF07C08D919C91E80FF91F80818A
:10090000282F30E0C9010895DC011C96ED91FC917F
:100910001D97E05CFF4F20813181E054F040DF0102
:10092000AE5BBF4F8D919C9111972817390719F431
:100930002FEF3FEF10C08D919C911197E80FF91F99
:1009400020818D919C91119701968F7390701196D3
:100950009C938E9330E0C9010895DC0191968C91AF
:100960009197882339F05496ED91FC9155978081A9
:1009700086FFF9CF91961C920895CF93DF93EC01F7
:10098000EE85FF85E05CFF4F20813181E054F0402F
:100990002F5F3F4F2F733070DF01AE5BBF4F8D91E4
:1009A0009C91119728173907D1F3E05CFF4F8081A4
:1009B0009181E054F040E80FF91F6083EE85FF85D8
:1009C000E05CFF4F31832083EE89FF89208181E045
:1009D00090E00F8C02C0880F991F0A94E2F7282B31
:1009E000208381E089A3EC89FD89808180648083F4
:1009F00081E090E0DF91CF9108951092A4011092D0
:100A0000A30188EE93E0A0E0B0E08093A50190936D
:100A1000A601A093A701B093A80184E091E0909370
:100A2000A2018093A10189E191E09093AE018093AE
:100A3000AD018DE591E09093B0018093AF0185EC1D
:100A400090E09093B2018093B10184EC90E0909398
:100A5000B4018093B30180EC90E09093B601809351
:100A6000B50181EC90E09093B8018093B70182ECDE
:100A700090E09093BA018093B90186EC90E0909356
:100A8000BC018093BB0184E08093BD0183E080932F
:100A9000BE0187E08093BF0185E08093C00181E0C3
:100AA0008093C1010895CF93DF930E9414020E94A6
:100AB0005201CEE7D3E00E948C002097E1F30E9420
:100AC0007E03F9CFCF92DF92EF92FF920F931F93A5
:100AD000CF93DF937C016B018A01C0E0D0E00FC0AF
:100AE000D6016D916D01D701ED91FC910190F081DE
:100AF000E02DC7010995C80FD91F015010400115FD
:100B0000110571F7CE01DF91CF911F910F91FF90E9
:100B1000EF90DF90CF900895A1E21A2EAA1BBB1B85
:100B2000FD010DC0AA1FBB1FEE1FFF1FA217B307B9
:100B3000E407F50720F0A21BB30BE40BF50B661FCF
:100B4000771F881F991F1A9469F760957095809593
:100B500090959B01AC01BD01CF010895EE0FFF1FE1
:0C0B60000590F491E02D0994F894FFCF6B
:100B6C0000000000BD046205530484046404AD0459
:00000001FF
